{
  "contractName": "DappToken",
  "abi": [
    {
      "constant": true,
      "inputs": [],
      "name": "totalSupply",
      "outputs": [
        {
          "name": "",
          "type": "uint256"
        }
      ],
      "payable": false,
      "stateMutability": "view",
      "type": "function",
      "signature": "0x18160ddd"
    },
    {
      "inputs": [],
      "payable": false,
      "stateMutability": "nonpayable",
      "type": "constructor",
      "signature": "constructor"
    }
  ],
  "bytecode": "0x608060405234801561001057600080fd5b50620f4240600081905550609e806100296000396000f3fe608060405260043610603f576000357c0100000000000000000000000000000000000000000000000000000000900463ffffffff16806318160ddd146044575b600080fd5b348015604f57600080fd5b506056606c565b6040518082815260200191505060405180910390f35b6000548156fea165627a7a723058202ca16efa7c401cb3152dedb4fcc8e32df0b6468cd95aa6c19f6ba3d2edaf3cd00029",
  "source": "pragma solidity ^0.5.0;\r\n\r\ncontract DappToken {\r\n  // Constructor\r\n  // Set the total number of tokens\r\n  // Read the total number of tokens\r\n  uint256 public totalSupply ;\r\n\r\n  constructor () public {\r\n  \ttotalSupply = 1000000;\r\n  }\r\n}",
  "sourcePath": "C:/Users/Admin/token_sale/contracts/DappToken.sol",
  "compiler": {
    "name": "solc",
    "version": "0.5.0+commit.1d4f565a.Emscripten.clang"
  },
  "schemaVersion": "3.0.0",
  "updatedAt": "2018-12-27T06:57:01.659Z",
  "devdoc": {
    "methods": {}
  },
  "userdoc": {
    "methods": {}
  }
}